:100000000C94CB150C94F5150C94F5150C94F51572
:100010000C94F5150C94F5150C94F5150C94F51538
:100020000C94F5150C94F5150C94F5150C94F51528
:100030000C94F5150C94E2720C94F5150C94F515CE
:100040000C94F5150C94CF870C942C4A0C94F51550
:100050000C9427380C941D380C94F5150C94F51558
:100060000C94F5150C94F5150C94F5150C94F515E8
:100070000C94F5150C94F5150C94F5150C94F515D8
:100080000C94F5150C94F5150C94F5154F2D5C2D6D
:10009000692D7A2D8B2D9C2DAD2DBE2DCF2DE02DD4
:1000A000F12D022E132E242E352EA236A736AC3675
:1000B000B636E436E436C036C836D036DA36B74916
:1000C000BA49AD49B149D149D149BE49C249C849E6
:1000D000CC49CA65AA65B065AD65B365B665B96555
:1000E000C565BC65D765BF65C26521D5D8D30FD4BA
:1000F0005DD50FD40FD40FD40FD40FD40FD40FD499
:100100000FD40FD40FD40FD40FD40FD40FD40FD4D7
:100110000FD40FD40FD40FD40FD40FD40FD40FD4C7
:100120000FD40FD40FD457D50FD40FD40FD40FD46E
:100130000FD40FD40FD40FD430D50FD40FD40FD485
:100140000FD40FD40FD40FD40FD40FD40FD474D531
:100150000CD44E414E494E495459494E46CDCCCC13
:100160003D0AD7233C17B7D13877CC2B329595E68B
:10017000241FB14F0A000020410000C84200401C6B
:100180004620BCBE4CCA1B0E5AAEC59D7400407AB8
:1001900010F35A00A0724E18090010A5D4E8000010
:1001A000E87648170000E40B54020000CA9A3B00AE
:1001B0000000E1F505000080969800000040420F25
:1001C000000000A08601000000102700000000E8E9
:1001D00003000000006400000000000A00000000AE
:1001E000000100000000002C76D888DC674F08234F
:1001F000DFC1DFAE59E1B1B796E5E3E453C63AE6B5
:1002000051997696E8E6C28426EB898C9B62ED4094
:100210007C6FFCEFBC9C9F40F2BAA56FA5F49005E3
:100220005A2AF75C936B6CF9676DC11BFCE0E40D17
:1002300047FEF520E6B500D0ED902E03009435770B
:10024000050080841E080000204E0A000000C80C33
:10025000333333330F986E12831141EF8D2114899C
:100260003BE65516CFFEE6DB18D1844B381BF77CF6
:100270001D901DA4BBE424203284725E228100C93B
:10028000F124ECA1E53D27536C6565702E2E2E0000
:10029000436C69636B20746F20526573756D652EB6
:1002A0002E2E004E6F204D6F76652E00456E642019
:1002B00066696C65206C6973740A00426567696ED3
:1002C0002066696C65206C6973740A004E6F206D3E
:1002D000656469610A00286E6F2066696C65290093
:1002E00043757272656E742066696C653A200053BE
:1002F00044207072696E74696E672062797465203B
:10030000004E6F74205344207072696E74696E677A
:100310000A0044656C6574696F6E206661696C657E
:10032000642028726561642D6F6E6C79292C2046DB
:10033000696C653A20002569792025696420256962
:10034000682025696D20256973005072696E7420DC
:1003500074696D653A200045202553004D313132D6
:100360002053687574646F776E004D3131332053BC
:100370000042656420436F6F6C696E672E2E2E00FD
:100380004265642048656174696E672E2E2E005A9E
:1003900035534D32204F46462E004649524D574167
:1003A00052455F4E414D453A4D61726C696E206D0C
:1003B00061726C696E2D322E302E3820284F637496
:1003C00020313720323032302031393A32373A3228
:1003D000332920534F555243455F434F44455F55A2
:1003E000524C3A68747470733A2F2F676974687549
:1003F000622E636F6D2F4D61726C696E4669726D0E
:10040000776172652F4D61726C696E2050524F5446
:100410004F434F4C5F56455253494F4E3A312E3061
:10042000204D414348494E455F545950453A5A354D
:10043000534D322045585452554445525F434F5511
:100440004E543A3120555549443A636564653261EA
:1004500032662D343161322D343734382D396231E2
:10046000322D6335356336326633363766660A00B9
:10047000203B2043757272656E74205A00203B2029
:10048000456E6400203B20537461727400477261B2
:100490006469656E74204D6978200052616E646FE6
:1004A0006D204D69782000416363656C65726174ED
:1004B000696F6E3A2050003F4A206F7574206F6656
:1004C0002072616E67652028302E303120746F20D5
:1004D000302E33290A0020204D61783A2000202058
:1004E0004D696E3A2000536F667420656E647374B4
:1004F0006F70733A200046523A0020466C6F773A8C
:10050000200020643A0020693A0020703A00496EC9
:1005100076616C69642065787472756465720A002E
:1005200023646566696E652044454641554C545FB9
:10053000004B6420004B6920004B70200050494460
:10054000204175746F74756E652066696E69736895
:100550006564212050757420746865206C61737423
:10056000204B702C204B6920616E64204B6420630B
:100570006F6E7374616E74732066726F6D20626546
:100580006C6F7720696E746F20436F6E6669677554
:10059000726174696F6E2E680A005049442041757B
:1005A000746F74756E65206661696C656421207472
:1005B000696D656F75740A000A20436C6173736915
:1005C0006320504944200A00204B643A2000204B0D
:1005D000693A2000204B703A20002054753A2000E0
:1005E000204B753A2000206D61783A2000206D691B
:1005F0006E3A200020643A200020626961733A203C
:1006000000504944204175746F74756E6520737491
:100610006172740A00504944204175746F74756E9C
:1006200065206661696C6564212054656D70657232
:10063000617475726520746F6F20686967680A005D
:10064000504944204175746F74756E65005049447B
:10065000204175746F74756E65206661696C6564A0
:100660002120426164206578747275646572206E21
:10067000756D6265720A0046696C616D656E742005
:1006800072756E6F75742064697374616E63652032
:10069000286D6D293A200046696C616D656E742085
:1006A00072756E6F757420004F6666736574732083
:1006B0004170706C696564004572723A20546F6FC6
:1006C000206661722100546F6F206661722066722D
:1006D0006F6D207265666572656E636520706F6907
:1006E0006E740A00454550524F4D204F4B0A00444E
:1006F0006F6E65207072696E74696E672066696CD2
:10070000650A004D3737004D3331004572726F7204
:100710002077726974696E6720746F204545505266
:100720004F4D210A004D343130004D313132004DF2
:100730003130380053544F505045442E20005072F1
:10074000696E7465722073746F707065642064756F
:100750006520746F206572726F72732E20466978FF
:1007600020746865206572726F7220616E642075F6
:100770007365204D39393920746F20726573746147
:1007800072742E202854656D70657261747572657F
:100790002069732072657365742E20536574206917
:1007A0007420616674657220726573746172746915
:1007B0006E67290A004E6F20436865636B73756D21
:1007C0002077697468206C696E65206E756D62654E
:1007D000722C204C617374204C696E653A20006362
:1007E0006865636B73756D206D69736D61746368A3
:1007F0002C204C617374204C696E653A20004C6962
:100800006E65204E756D626572206973206E6F741F
:10081000204C617374204C696E65204E756D626565
:10082000722B312C204C617374204C696E653A2018
:10083000004D31313000534420726561642065728F
:10084000726F720A002121204B494C4C2063617564
:1008500073656420627920746F6F206D7563682002
:10086000696E6163746976652074696D65202D20F9
:1008700063757272656E7420636F6D6D616E643A3C
:100880002000627573793A20706175736564206623
:100890006F7220696E7075740A00627573793A2000
:1008A00070617573656420666F7220757365720A76
:1008B00000627573793A2070726F63657373696E45
:1008C000670A004D6564696120496E7365727465DD
:1008D00064004D36303000506C65617365205265A0
:1008E000736574005052494E5445522048414C544F
:1008F00045440025533A202553004B494C4C454470
:100900002E20005072696E7465722068616C746587
:10091000642E206B696C6C28292063616C6C6564A3
:10092000210A006563686F3A004572726F723A007F
:1009300020746F6F206C6F6E6720657874727573AA
:10094000696F6E2070726576656E7465640A00DB8F
:100950000FC93F45BCDA3F8FB30240FCF027405639
:10096000946140FE4B9B4084A5D840E0231841345D
:100970006A5641E859974164DBD5416E271742B466
:10098000B75542CE1A9742C8AED542B5885A43D41D
:100990000684BFA65FA7BF7443E0BF10B11AC01C96
:1009A0002C58C0E8F697C0B849D6C04E4E17C1249F
:1009B000D355C1802497C1A0B5D5C1121A17C2441E
:1009C000AE55C2781797C26CACD5C267885AC300BF
:1009D0000000000000000000000000000000000017
:1009E0000000000000000000000000000000000007
:1009F00000000000000000000000000000000007F0
:100A0000FFC3FF870187FF0FFCFFFC1E01FF80076C
:100A1000FFC3FF87018FFF1FFCFFFC1E03FFC00009
:100A200000C600C7018C0018000300618300C000ED
:100A300001C600C7C18C0018000300618300C0001C
:100A4000038600C6C18C0018000301806300C0004B
:100A5000070600C6618C0018000301806300C00017
:100A60000E0600C6618C0018000301806300C00000
:100A70001C0600C6318FFE1FF803018063FFC00013
:100A8000380600C6318FFE0FFC03018063FF800033
:100A9000700600C6198C00000C0301FFE30C000077
:100AA000E00600C6198C00000C0301FFE3070001FB
:100AB000C00600C60D8C00000C030180630180039A
:100AC000800600C60D8C00000C03018063018007C6
:100AD000000600C6078C00000C030180630180063D
:100AE000000600C6078C00000C030180630180072C
:100AF000FFC3FF86038FFF1FFC0301806301800794
:100B0000FFC3FF860387FF1FF80301806301800096
:100B100000000000000000000000000000000000D5
:100B200000000000000000000000000000000000C5
:100B300000000000000000000000000000000000B5
:100B4000000000000000000000000000000000F0B5
:100B5000004A0110013B0130012C014001270150E6
:100B600001220170011D0190011801B0011301C0A3
:100B7000010E01F0010901100204013002FF0060C2
:100B800002FA009002F500C002F0000003EB004002
:100B900003E6008003E100D003DC002004D700E07E
:100BA00004D200C005CD004006C800D006C30080B6
:100BB00007BE00F008B9004009B400C009AF00B09A
:100BC0000AAA00B00BA500D00CA000000E9B00C02C
:100BD0001096005012910000148C00C0158700B0D0
:100BE000178200B0197D00D01B7800001E730040F2
:100BF000206E0090226900F024640040275F00907E
:100C0000295A00E02B5500102E500020304B0010C8
:100C1000324600E033410090353C00103737007019
:100C2000383200A0392D00B03A2800A03B230060E4
:100C30003C1E00103D1900903D1400103E0F007046
:100C40003E0A00C03E0500003F0000403FFBFF8021
:100C50003FF6FFC03FF1FF000000010200090A005B
:100C6000000000040308070000000000000000006E
:100C7000000000000000002020506C616E6E657264
:100C800042756666657242797465733A2000204643
:100C9000726565204D656D6F72793A2000436F6D06
:100CA00070696C65643A204F6374203137203230AC
:100CB00032300A00204C6173742055706461746591
:100CC000643A20323032302D31302D3134207C20C6
:100CD000417574686F723A20285A4F4E45535441FB
:100CE000522C2048616C6C79290A006D61726C6924
:100CF0006E2D322E302E380A004D61726C696E00F6
:100D000020536F6674776172652052657365740A4B
:100D100000205761746368646F672052657365745F
:100D20000A002042726F776E206F757420526573CF
:100D300065740A002045787465726E616C20526596
:100D40007365740A00506F77657255700A0061759B
:100D5000746F25632E67004732385859004D313083
:100D60003031006572726F722077726974696E67D4
:100D700020746F2066696C650A00446F6E6520738D
:100D80006176696E672066696C652E0A004D32399E
:100D900000456E6473746F707300255320256320C3
:100DA000256320256320256300656E6473746F706E
:100DB00073206869743A20000000A0C10000A0C040
:100DC000000000000000484200004842000080404F
:100DD0000202040000A0400000A04000000040000B
:100DE0000070430000614300005C43FFFFFF000010
:100DF0005C4300005C4300005C435761726E696EA7
:100E0000673A20486F6D696E672042756D702044A7
:100E1000697669736F72203C20310A0053657474DF
:100E2000696E67732053746F7265640053657474E0
:100E3000696E67732053746F726564202800416483
:100E400076616E6365642053657474696E677300C0
:100E5000554E4C4F41442046494C414D454E54005F
:100E600046494C414D454E54204348414E4745006C
:100E7000526573746F72652044656661756C747336
:100E8000004C6F61642053657474696E677300531E
:100E9000746F72652053657474696E677300507265
:100EA0006568656174202420436F6E66004F666636
:100EB000004F6E0052756E6F75742053656E736FC0
:100EC00072004D363030204230205425690043688E
:100ED000616E67652046696C616D656E74202A00DD
:100EE000436F6E74696E7565005075726765206D2D
:100EF0006F726500524553554D45204F5054494F30
:100F00004E533A005052494E542050415553454497
:100F10000020204E6F7A7A6C653A200052756E611F
:100F20007761792057617463683A204F46460031F3
:100F30003330004245443A203130306B20776974B9
:100F40006820342E376B2070756C6C2D75700052D4
:100F5000756E617761792057617463683A204F4EEE
:100F6000004D61782054656D7000323735004D6951
:100F70006E2054656D700045313A203130306B2061
:100F80007769746820342E376B2070756C6C2D7502
:100F900070005053550047656E657269630050726A
:100FA0006F746F636F6C00312E30004261756400A6
:100FB0003131353230300068747470733A2F2F77C6
:100FC00077772E616C69657870726573732E636FC5
:100FD0006D2F6974656D2F333239353734393037B9
:100FE00034342E68746D6C005A6F6E657374617260
:100FF000205A4D49425F56320045787472756465D7
:101000007273007777772E7A6F6E657374617233BF
:10101000642E636F6D005A35534D320032303230DA
:101020002D31302D3134006D61726C696E2D322E90
:10103000302E380056352E302E31005061726B69DB
:101040006E672E2E2E0000005761697420666F7245
:101050000066696C616D656E74206368616E6765BA
:1010600000746F2073746172740057616974206634
:101070006F720066696C616D656E7420756E6C6F61
:10108000616400004E6F7A7A6C65206865617469EE
:101090006E6700506C6561736520776169742E2EF0
:1010A0002E0000507265737320627574746F6E0049
:1010B000746F2068656174206E6F7A7A6C650000C9
:1010C000496E736572742066696C616D656E74003B
:1010D000616E6420707265737320627574746F6ED4
:1010E00000746F20636F6E74696E75650057616977
:1010F0007420666F720066696C616D656E74206C39
:101100006F61640000507265737320427574746F70
:101110006E00746F20726573756D65207072696EF4
:101120007400005761697420666F72207072696E76
:101130007400746F20726573756D652E2E2E00001D
:101140005761697420666F720066696C616D656EC7
:101150007420707572676500004520737465707344
:101160002F6D6D005A2053746570732F6D6D00598B
:101170002053746570732F6D6D0058205374657023
:10118000732F6D6D00496E6974004D34323800491B
:101190006E697469616C697A6520454550524F4D9E
:1011A000004A756E6374696F6E2044657600416312
:1011B00063656C65726174696F6E0056656C6F6310
:1011C0006974790053657420486F6D65204F6666B9
:1011D00073657473004E65787420436F726E657228
:1011E00000446F6E65004E65787400486F6D696EDF
:1011F000672058595A005072696E742066726F6D7C
:10120000204D65646961005072696E74205061758B
:10121000736564004D6F76652025736D6D004D6FAD
:10122000766520302E316D6D004D6F766520316D05
:101230006D004D6F76652031306D6D004D6F7665B8
:101240002041786973004578747275646572004D49
:101250006F7665205A004D6F76652059004D6F7688
:1012600065205800486F6D65202573257325732010
:1012700046697273740020573A005A35534D322034
:1012800052656164792E005072696E74696E672EC2
:101290002E2E00220A00556E6B6E6F776E20636FE4
:1012A0006D6D616E643A2022003B2000436F6E66D4
:1012B000696775726174696F6E00546865726D69F3
:1012C00073746F727300426F61726420496E666F4F
:1012D000005072696E74657220496E666F004261DB
:1012E000636B0053746F7000417474616368204DC8
:1012F00065646961004D32310052656C65617365EA
:10130000204D65646961004D3232004368616E674B
:10131000652046696C616D656E7400526573756D0C
:1013200065205072696E740041626F75742050724E
:10133000696E7465720054756E650053746F702029
:101340005072696E74005061757365205072696ED9
:101350007400496E666F2053637265656E00537446
:10136000617274205072696E740043616E6E6F74A6
:1013700020656E746572207375626469723A20002C
:10138000022E2E00015265667265736800205200BD
:1013900020204D363033200020204D343132205370
:1013A0000046696C616D656E742072756E6F757440
:1013B0002073656E736F723A002055004C004669C9
:1013C0006C616D656E74206C6F61642F756E6C6FEF
:1013D0006164206C656E677468733A002044002075
:1013E000490020204D3330312050005049442073B3
:1013F000657474696E67733A0020460020480020C7
:10140000204D3134352053004D6174657269616C33
:101410002068656174757020706172616D657465B6
:1014200072733A0020204D323036205800486F6DDC
:1014300065206F66667365743A00204A0020204D6F
:10144000323035204200416476616E6365643A2033
:10145000423C6D696E5F7365676D656E745F74693C
:101460006D655F75733E20533C6D696E5F666565A3
:1014700064726174653E20543C6D696E5F74726184
:1014800076656C5F66656564726174653E204A3C92
:101490006A756E635F6465763E0020540020204DBF
:1014A000323034205000416363656C657261746949
:1014B0006F6E2028756E6974732F7332293A20502D
:1014C0003C7072696E745F616363656C3E20523C70
:1014D000726574726163745F616363656C3E20540E
:1014E0003C74726176656C5F616363656C3E00207D
:1014F000204D3230312058004D6178696D756D2076
:10150000416363656C65726174696F6E2028756EE6
:101510006974732F7332293A0020204D3230332002
:1015200058004D6178696D756D20666565647261FE
:101530007465732028756E6974732F73293A00538C
:10154000746570732070657220756E69743A00203E
:10155000204D3134392043203B20556E697473206F
:10156000696E2043656C736975730A0020286D6D80
:1015700029002020473231202020203B20556E6951
:10158000747320696E206D6D0024F4D43050C38EC6
:1015900020C2A24017828B7011127A910D816CD9F2
:1015A0000AA861E108C7586607615143061E4B5DF2
:1015B00005C145A7041A411104093D980371393149
:1015C000034036DB0265339102D4305402802E1D75
:1015D00002632CEE01752AC501B028A001102781F5
:1015E000018F2564012B244B01E0223401AC211F23
:1015F000018D200D01801FFC00841EED00971DDF72
:1016000000B81CD200E61BC600201BBC00641AB246
:1016100000B219A8000A19A0006A189900D1179100
:101620000040178B00B516840031167E00B3157983
:10163000003A157300C7146F0058146A00EE136661
:10164000008813630025135E00C7125B006C1257FD
:101650000015125400C111510070114F0021114B9F
:1016600000D61049008D1047004610440002104279
:1016700000C00F4000800F3E00420F3C00060F3BB1
:1016800000CB0E3800930E37005C0E3500270E3469
:1016900000F30D3200C10D3100900D3000600D2EB1
:1016A00000320D2D00050D2C00D90C2B00AE0C299D
:1016B00000850C29005C0C2700350C27000E0C2639
:1016C00000E80B2400C40B2400A00B23007D0B2397
:1016D000005A0B2100390B2100180B2000F80A1FBB
:1016E00000D90A1E00BB0A1E009D0A1D00800A1DAB
:1016F00000630A1C00470A1B002C0A1B00110A1A6F
:1017000000F7091A00DD091900C4091900AB09190D
:1017100000920917007B091800630917004C09168D
:101720000036091600200916000A091500F50815EB
:1017300000E0081400CC081400B8081400A4081431
:1017400000900813007D0812006B0813005808125F
:101750000046081200340811002308110012081175
:101760000001081100F0071000E0071000D007107A
:1017700000C0071000B0070F00A107100091070E6E
:101780000083070F0074070F0065070E0057070E50
:101790000049070E003B070D002E070E0020070D25
:1017A0000013070D0006070D00F9060C00ED060DED
:1017B00000E0060C00D4060C00C8060C00BC060CA9
:1017C00000B0060C00A4060B0099060C008D060B59
:1017D0000082060B0077060B006C060B0061060A00
:1017E0000057060B004C060A0042060A0038060A9B
:1017F000002E060A0024060A001A060A001006092E
:101800000007060A00FD050900F4050900EB0509BB
:1018100000E2050900D9050900D0050900C705093E
:1018200000BE050900B5050800AD050800A50509BD
:10183000009C050800940508008C05080084050834
:10184000007C050800740508006C050700650508A4
:10185000005D050700560508004E0507004705070F
:10186000004005080038050700310507002A050774
:1018700000230507001C050600160507000F0507D5
:10188000000805060002050700FB040600F5040732
:1018900000EE040600E8040600E2040700DB04068C
:1018A00000D5040600CF040600C9040600C30406E0
:1018B00000BD040600B7040600B1040500AC040630
:1018C00000A6040600A00405009B0406009504057C
:1018D00000900406008A04050085040500800406C3
:1018E000007A04050075040500700405006B04050A
:1018F0000066040500610405005C0405005704054A
:1019000000520405004D0405004804050043040589
:10191000003E0404003A04050035040500300404C8
:10192000002C04050027040400230405001E040401
:10193000001A04040016040500110404000D040438
:1019400000090405000404040000040400FC03046E
:1019500000F8030400F4030400F0030400EC0304A3
:1019600000E8030400E4030400E0030400DC0304D3
:1019700000D8030400D4030400D0030400CC030403
:1019800000C8030300C503030024F404D9201BC4CA
:101990000C5C0E9804C4095F0265077101F405F937
:1019A00000FB04B30048048700C1036900580355D5
:1019B0000003034500BE023A008402310053022AAC
:1019C000002902250004022000E4011C00C80119BE
:1019D00000AF011700980114008401130071011079
:1019E000006101100051010E0043010D0036010B92
:1019F000002B010B0020010B00150109000C01094F
:101A00000003010800FB000800F3000800EB0007DA
:101A100000E4000600DE000600D8000600D2000642
:101A200000CC000500C7000500C2000500BD000491
:101A300000B9000400B5000400B1000400AD0004CA
:101A400000A9000400A5000300A20003009F0004F9
:101A5000009B000300980003009500020093000320
:101A600000900003008D0002008B0003008800023C
:101A7000008600020084000300810002007F000253
:101A8000007D0002007B0002007900020077000167
:101A90000076000200740002007200010071000272
:101AA000006F0002006D0001006C0002006A00017E
:101AB0000069000200670001006600010065000186
:101AC000006400020062000100610001006000018A
:101AD000005F0002005D0001005C0001005B00018E
:101AE000005A000100590001005800010057000190
:101AF0000056000100550001005400010053000091
:101B0000005300010052000100510001005000018B
:101B1000004F0001004E0000004E0001004D00018A
:101B2000004C0001004B0000004B0001004A000186
:101B30000049000100480000004800010047000182
:101B4000004600000046000100450000004500017D
:101B50000044000100430000004300010042000077
:101B6000004200010041000000410001004000016E
:101B7000003F0000003F0001003E0000003E000169
:101B8000003D0000003D0001003C0000003C000062
:101B9000003C0001003B0000003B0001003A000057
:101BA000003A00010039000000390001003800004F
:101BB0000038000000380001003700000037000145
:101BC000003600000036000000360001003500003D
:101BD0000035000000350001003400000034000032
:101BE0000034000100330000003300000033000126
:101BF000003200000032000000320001003100001D
:101C00000031000000310001003000000030000011
:101C100000300001002F0000002F0000002F000006
:101C2000002F0001002E0000002E0000002E0001F9
:101C3000002D0000002D0000002D0000002D0001EF
:101C4000002C0000002C0000002C0000002C0001E3
:101C5000002B0000002B0000002B0000002B0001D7
:101C6000002A0000002A0000002A0000002A0001CB
:101C700000290000002900000029000000290000C0
:101C800000290001002800000028000000280000B2
:101C900000280000002800010027000000270000A5
:101CA0000027000000270000002700010026000098
:101CB000002600000026000000260000002600018B
:101CC0000025000000250000002500000025000080
:101CD0000025000000250001002400000024000071
:101CE0000024000000240000002400010023000064
:101CF0000023000000230000002300000023000058
:101D00000023000000230001002200000022000048
:101D1000002200000022000000220000002200013A
:101D2000002100000021000000210000002100002F
:101D3000002100000021000000210001002000001F
:101D40000020000000200000002000000020000013
:101D5000002000000020000000200001001F000003
:101D6000001F0000001F0000001F0000001F0000F7
:101D7000001F0000001F0001001E0000001E0000E8
:101D8000001E0000001E000000A32F0000632100C1
:101D900000E3140000F20B00006F0600005903007E
:101DA00000B5010000DD000000656E7175657565A8
:101DB000696E672022006F6B00526573656E643A2E
:101DC00020004572723A207574663820666F6E7412
:101DD000206E6F7420696E697469616C697A6564DC
:101DE0002E00000C0F00FE07022503BB017FFE083A
:101DF000FE08FE05080806000040F0C888889878AC
:101E000010050808060000C0F88888888888F8054A
:101E100005050600012030F83020050808060000FE
:101E20002070F820202020E00509090600FF20701E
:101E3000A8A8B888887020070505070001D86C3667
:101E40006CD80509090600FFF8A88888888888A842
:101E5000F8050A0A0600FE205050505088A8A888AD
:101E60007003030306000340A040FFFFFFFFFFFFD6
:101E7000FFFFFFFFFFFFFFFFFFFFFFFFFFFFFFFF72
:101E80000000000605FF0107070602008080808031
:101E9000800080030303060105A0A0A00506060636
:101EA000000050F85050F8500509090600FF207056
:101EB000A8A07028A87020050707060000C8C81051
:101EC0002040989805070706000040A0A040A89071
:101ED000680103030602058080800309090601FFEB
:101EE0002040408080804040200309090601FF8097
:101EF000404020202040408005070706000020A821
:101F0000702070A8200505050600012020F820207B
:101F10000203030601FFC04080050101060003F82B
:101F2000020202060100C0C00507070600000810F3
:101F30001020404080050707060000708898A8C858
:101F4000887003070706010040C040404040E0059C
:101F50000707060000708808102040F805070706EC
:101F60000000F80810300888700507070600001008
:101F7000305090F81010050707060000F880F008B0
:101F8000088870050707060000304080F0888870D8
:101F9000050707060000F808101020202005070795
:101FA00006000070888870888870050707060000A2
:101FB00070888878081060020505060100C0C0001E
:101FC000C0C00206060601FFC0C000C04080030575
:101FD000050601012040804020050303060002F8A9
:101FE00000F8030505060101804020408005070731
:101FF000060000708810202000200507070600005A
:102000007088B8A8B8807005070706000070888837
:10201000F8888888050707060000F0484870484897
:10202000F00507070600007088808080887005072B
:1020300007060000F04848484848F0050707060032
:1020400000F88080F08080F8050707060000F8801F
:1020500080F08080800507070600007088808098E7
:102060008870050707060000888888F88888880334
:102070000707060100E04040404040E00507070632
:102080000000381010101090600507070600008847
:1020900090A0C0A09088050707060000808080807F
:1020A0008080F805070706000088D8A888888888F7
:1020B0000507070600008888C8A8988888050707CC
:1020C0000600007088888888887005070706000069
:1020D000F08888F0808080050707060000708888F7
:1020E00088A89068050707060000F08888F0A0908F
:1020F000880507070600007088807008887005074B
:1021000007060000F82020202020200507070600F1
:1021100000888888888888700507070600008888F6
:10212000888850502005070706000088888888A8FE
:10213000A8500507070600008888502050888805A9
:102140000707060000888850202020200507070682
:102150000000F80810204080F80309090601FFE09C
:1021600080808080808080E0050707060000804036
:1021700040201010080309090601FFE0202020205C
:10218000202020E0050303060005205088050101FA
:102190000600FEF80303030601058040200505053F
:1021A0000600007008788878050707060000808020
:1021B000F0888888F005050506000070808088702A
:1021C000050707060000080878888888780505054F
:1021D0000600007088F08070050707060000304890
:1021E00040E04040400507070600FE708888887878
:1021F00008700507070600008080F088888888033B
:1022000007070601004000C0404040E004090906FD
:1022100001FE100030101010109060050707060036
:102220000080808890E09088030707060100C04086
:1022300040404040E0050505060000D0A8A8A8A839
:10224000050505060000B0C8888888050505060054
:102250000070888888700507070600FEF088888867
:10226000F080800507070600FE78888888780808CF
:10227000050505060000B0C880808005050506003C
:102280000078807008F00507070600002020F8207D
:10229000202018050505060000888888986805052F
:1022A000050600008888885020050505060000887E
:1022B00088A8A8500505050600008850205088050C
:1022C00007070600FE88888850204080050505061F
:1022D0000000F8102040F80309090601FF204040E3
:1022E0004080404040200109090602FF8080808034
:1022F00080808080800309090601FF8040404020E3
:102300004040408005030306000248A890FF202DAE
:1023100020496E76616C69642065787472756465B5
:1023200072206E756D62657220210A004572723AE4
:10233000204D415854454D50004D415854454D5045
:1023400020747269676765726564004572723A202D
:102350004D494E54454D50004D494E54454D502029
:1023600074726967676572656400202F00204240BF
:102370003A0020403A001000AA038000400100010A
:102380002C01B001220140021001F0020201800381
:10239000F8004004F500E004ED009005E40030068C
:1023A000DD00E006D7008007D1003008CC00D0085F
:1023B000C7007009C300100ABE00B00ABB00500B72
:1023C000B700900CB300D00DAA00B00FA5005010BC
:1023D000A000101496009016900010198C00501A4E
:1023E0008500301C820070227800B02375004025E3
:1023F0006E0020276900A0296400502A5F00902BFE
:102400005A00D02C5500702D4F00E02E480050315E
:10241000450030334100D035390060363700103781
:102420003300F0382D00A0392700803C1C00403DCF
:102430001700F03D1100703E0A00C03E0500003F4D
:102440000000403FFBFF803FF6FFC03FF1FF4D69BA
:10245000786572003F0043616E63656C005265767B
:1024600065727365204772616469656E740020202F
:10247000456E6420562D746F6F6C005374617274D6
:1024800020562D746F6F6C002020456E64205A3AE0
:10249000002534642E2564206D6D005374617274C0
:1024A000205A3A004379636C65204D697800436F88
:1024B0006D6D697420562D746F6F6C204D697800B6
:1024C000436F6D706F6E656E74203D00562D746F96
:1024D0006F6C732057657265205265736574005286
:1024E000616E646F6D204D6978003A646973616252
:1024F0006C65003A20656E61626C650047726164CC
:1025000069656E744D697800526573657420562D47
:10251000746F6F6C7300204D3932205800252900EC
:10252000257C00507265737320627574746F6E2021
:10253000746F2068656174206E6F7A7A6C650A002A
:10254000496E736572742066696C616D656E742086
:10255000616E6420707265737320627574746F6E3F
:102560000A0020496E76616C696420657874727522
:10257000646572200052756E6F75742044697374BF
:10258000206D6D004C6F6164206D6D00556E6C6F39
:102590006164206D6D005654726176204D696E0045
:1025A000566D696E00566D6178204500566D6178F4
:1025B000205A00566D6178205900566D6178205878
:1025C00000416D6178204500416D6178205A0041DD
:1025D0006D6178205900416D6178205800412D547B
:1025E000726176656C00412D52657472616374008E
:1025F000416363656C001FE0201020102010102044
:1026000010202010201030300840048003001FE00C
:102610003FF03FF03FF01FE01FE03FF03FF03FF0A2
:102620000FC0078003003FFFF038007030FC3020FF
:10263000FC102078102030102C00D02E31D02F7BB1
:10264000D02F7BD02E31D02C00D02030102078100D
:1026500020FC1030FC303800703FFFF03FFFF038B6
:1026600000703186302387102787902F87D02F0363
:10267000D02030102078102078102030102F03D078
:102680002F87D02787902387103186303800703FFE
:10269000FFF01FFFF81FFFF8041040020820020897
:1026A00020041040082080104100104100082080C4
:1026B0000410400000001FFFF81FFFF80330000C5B
:1026C000C00120000480012000048001200004805B
:1026D000013FFFFC80010000008001FF83FF8000BC
:1026E0000FC7E000000FEFE0000003EF80000001E3
:1026F000EF000000006C000000000000002568757D
:102700003A253032687500256875642025303268B6
:10271000753A2530326875002020202020202000C6
:102720005072696E742041626F72746564004D323C
:10273000350050617573696E672E2E2E006F7065BF
:102740006E005452494747455245440066696C61E2
:102750006D656E74007A5F6D696E00795F6D696E8C
:1027600000785F6D696E005265706F7274696E6794
:1027700020656E6473746F70207374617475730A6E
:10278000002053697A653A200043616E6E6F7420B1
:102790006F70656E20737562646972200053442007
:1027A00063617264206F6B0A006F70656E526F6FA9
:1027B00074206661696C65640A00766F6C756D657E
:1027C0002E696E6974206661696C65640A004E6FDB
:1027D00020534420636172640A004D3234004D324C
:1027E0003320257300646F696E67004E6F77200099
:1027F00046696C652073656C65637465640A0046A0
:10280000696C65206F70656E65643A2000454E44C2
:1028100020535542524F5554494E450A00222070CC
:102820006F73002220706172656E743A22005355F6
:1028300042524F5554494E452043414C4C207461FF
:10284000726765743A220053756263616C6C204F45
:10285000766572666C6F770045786365656465645C
:10286000206D617820535542524F5554494E4520B2
:1028700064657074683A310A00000022002500285F
:10288000002B0000002100240027002A0002020281
:102890000202020202040404040404040403030305
:1028A000030303030301010101010101010102040A
:1028B000081020408001020408102040800102041A
:1028C0000810204080804020100804020120453A72
:1028D0000020593A0054656D7065726174757265B7
:1028E0000041425300504C4100426162797374656B
:1028F00070205A0046616E205370656564004E6F0B
:102900007A7A6C65004D61696E0050726568656128
:1029100074202420456E64005072656865617420DF
:10292000242042656400436F6F6C646F776E0050C3
:10293000726568656174202400546F74616C004690
:102940006C6F7700E528E12841637469766520564D
:102950002D746F6F6C004D6F74696F6E004D38345D
:102960000044697361626C652053746570706572B0
:1029700073004C6576656C20436F726E65727300F0
:10298000486F6D65205A004732385A00486F6D65B0
:102990002059004732385900486F6D65205800476C
:1029A000323858004175746F20486F6D65004732AA
:1029B00038002062797465733B2063726320004E97
:1029C0006F20454550524F4D2E0A00454550524FFD
:1029D0004D206461746173697A65206572726F72EB
:1029E0002E0A002073746F726564207365747469B5
:1029F0006E6773207265747269657665642028005D
:102A0000202863616C63756C6174656429210A0018
:102A100020213D2000454550524F4D204352432038
:102A20006D69736D61746368202D202873746F72F3
:102A30006564292000496E6465783A20004449475E
:102A400049504F5453204C6F616465640A004449F7
:102A50004749504F5453204C6F6164696E670A00B8
:102A6000204D61726C696E3D563831290A0045452A
:102A700050524F4D2076657273696F6E206D697389
:102A80006D617463682028454550524F4D3D0045A7
:102A90004550524F4D20496E697469616C697A6581
:102AA000640A0048617264636F646564204465660B
:102AB00061756C742053657474696E6773204C6F14
:102AC000616465640A0000009643000096430000BC
:102AD000A0400000C8410000A0420000A042000049
:102AE000C8430000AA42B80B0000B80B0000640005
:102AF000000010270000456E636C6F7375726500EF
:102B000020436F756E7420583A0045310062656449
:102B1000002C2073797374656D2073746F70706509
:102B20006421204865617465725F49443A2000540D
:102B30004845524D414C2052554E41574159005441
:102B40006865726D616C2052756E617761790048BD
:102B5000656174696E67204661696C6564004865EB
:102B60006174696E67206661696C6564006F706589
:102B70006E206661696C65642C2046696C653A203C
:102B8000007C3C3E5E2B3D3F2F5B5D3B2C2A225C54
:102B90000000CAE8B0E811241FBECFEFD0E4DEBFCA
:102BA000CDBF12E0A0E0B1E0E6E3F2EF01E00BBF41
:102BB00002C007900D92A832B107D9F723E1A8E22D
:102BC000B2E001C01D92A530B207E1F715E1CAECF1
:102BD000D5E104C02197FE010E9463F6C93CD107EC
:102BE000C9F70E9479E00C940EF90C9400002F9222
:102BF0003F924F925F926F927F928F929F92AF928D
:102C0000BF92CF92DF92EF92FF920F931F93CF93D9
:102C1000DF93CDB7DEB7C156D1090FB6F894DEBF4A
:102C20000FBECDBFA2968FAFA29720912D026396C3
:102C30002FAF639781E080932D028091B8128D347D
:102C400009F456C3843511F40C942B27873411F002
:102C50000C9456278091B6129091B7128531910548
:102C600011F40C9458275CF48430910509F459C28E
:102C70001CF4029760F138C3089749F135C38A35CF
:102C8000910509F4BCC244F48B31910509F488C262
:102C90004C9709F4A4C228C38B35910509F4B3C23B
:102CA0008C35910509F020C32CE8222E21E0322E2C
:102CB00035E2E32E3AE0F32E40E651E059A348A373
:102CC00043EDC42E4EE0D42E00E010E0DCC2809133
:102CD000190A813011F00C94582764E3C62E6AE07B
:102CE000D62E70E6E72E71E0F72EE3EDAE2EEEE085
:102CF000BE2E10E088E5810F0E948092882319F192
:102D00000E94FF912B013C01812F0E942D9188236D
:102D100051F0D7012D913D914D915C91C301B201CC
:102D20000E947FF609C0F5012081318142815381E3
:102D3000C301B2010E947EF6D6016D937D938D93FF
:102D40009C9313970AC0F70180819181A281B3817E
:102D5000F60180839183A283B3831F5FF4E0CF0EDB
:102D6000D11C24E0E20EF11C34E0A30EB11C1330A0
:102D700009F685E40E948092882301F10E94FF9168
:102D80006B017C0183E00E942D91882371F02091DA
:102D90006C0130916D0140916E0150916F01C7013E
:102DA000B6010E947FF66B017C01C092400AD0926E
:102DB000410AE092420AF092430A10C080916C01ED
:102DC00090916D01A0916E01B0916F018093400AC6
:102DD0009093410AA093420AB093430A86E40E946A
:102DE00080928823C9F00E94FF9120E030E0A90181
:102DF0000E9402F8181684F40E94FF9120E030E04F
:102E000040E752E40E9402F76093000170930101D1
:102E1000809302019093030180912901882309F492
:102E2000BCC01091330A10FF3CC0C0902B01D09061
:102E30002C01E0902D01F0902E012091340A309168
:102E4000350A4091360A5091370AC701B6010E94EF
:102E500002F8181644F4C092340AD092350AE0926F
:102E6000360AF092370AC0903701D0903801E090CE
:102E70003901F0903A012091340A3091350A40919D
:102E8000360A5091370AC701B6010E9468EF87FFE2
:102E900008C0C092340AD092350AE092360AF09205
:102EA000370A11FF3CC0C0902F01D0903001E09054
:102EB0003101F09032012091380A3091390A409165
:102EC0003A0A50913B0AC701B6010E9402F818164F
:102ED00044F4C092380AD092390AE0923A0AF09249
:102EE0003B0AC0903B01D0903C01E0903D01F09046
:102EF0003E012091380A3091390A40913A0A5091A6
:102F00003B0AC701B6010E9468EF87FF08C0C09264
:102F1000380AD092390AE0923A0AF0923B0A12FF3C
:102F20003CC0C0903301D0903401E0903501F09066
:102F3000360120913C0A30913D0A40913E0A509161
:102F40003F0AC701B6010E9402F8181644F4C09265
:102F50003C0AD0923D0AE0923E0AF0923F0AC090AD
:102F60003F01D0904001E0904101F090420120915A
:102F70003C0A30913D0A40913E0A50913F0AC701F8
:102F8000B6010E9468EF87FF08C0C0923C0AD09249
:102F90003D0AE0923E0AF0923F0AC090400AD0906B
:102FA000410AE090420AF090430A80906C019090B0
:102FB0006D01A0906E01B0906F01A5019401C70151
:102FC000B6010E9468EF882309F46FC0A50194013F
:102FD000C701B6010E947EF66B017C0120E030E063
:102FE000A9010E9402F887FF04C0F7FAF094F7F8ED
:102FF000F09420911B0130911C0140911D015091D2
:103000001E01C701B6010E94CEEF6B017C0120E0DA
:1030100030E048E453E40E9402F818160CF045C072
:103020009E012F5F3F4F40910C0360E070E080E80D
:103030009FE30E94FB9729813A814B815C81C70104
:10304000B6010E94CEEF20E030E048E453E40E9455
:1030500002F8181684F02D813E814F815885C701F2
:10306000B6010E94CEEF20E030E048E453E40E9435
:1030700002F81816D4F40E94943180E399E00E947B
:1030800065318091400A9091410AA091420AB09125
:10309000430A80936C0190936D01A0936E01B093ED
:1030A0006F0180E49AE00E945C522AE037ED43E22F
:1030B0005CE36091000170910101809102019091A7
:1030C00003010E94CEEF6B017C016091560170916B
:1030D0005701072E000C880B990B0E946FEF9B0184
:1030E000AC01C701B6010E94CEEF69837A838B835E
:1030F0009C838E010F5F1F4F20E43AE04CE35AE0BF
:1031000068E37AE084E39AE00E94066580E1E4E304
:10311000FAE0A0E6B1E001900D928A95E1F70C94F7
:10312000582780E50E948092882329F00E94B79159
:103130006B017C0103C0C12CD12C760183E50E9478
:103140008092882361F00E94FF9120E030E04AE7FE
:1031500054E40E94CEEF0E947BF76B017C010E9439
:10316000B14F8091F80B811105C060E087E892E0D3
:103170000E94E9AF0E94204AC60ED71EE81EF91E23
:103180000E94204ADC01CB018C199D09AE09BF09C0
:10319000B7FD02C00C94582780E00E94B633F0CFF0
:1031A0000E94826781110C9458278CE0E0E8F1E0DE
:1031B000DE01119601900D928A95E1F780E50E945B
:1031C0008092882321F00E94C791862F01C080E061
:1031D000BE016F5F7F4F0E9424AF0C9458278091EF
:1031E000330A8770873011F00C94652760E08FE414
:1031F0000E949B9681110C9458270C94652710927D
:103200002C020C9458278FE080932C020C945827A2
:103210000E94FF912B013C01133049F0F6012081FF
:103220003181428153810E947EF62B013C01A8A18D
:10323000B9A12D913D914D915C91C301B2010E94C4
:103240007EF64B015C012DEB37E346E855EB0E941F
:1032500002F887FD20C02DEB37E346E855E3C501B2
:10326000B4010E9468EF1816B4F01F5FB4E0EB0ED3
:10327000F11CE8A1F9A13496F9A3E8A3F4E0CF0E7C
:10328000D11C143039F1D1018D911D010E94809221
:10329000882359F3BDCF133051F440926C01509202
:1032A0006D0160926E0170926F0101E0DECFA501A9
:1032B0009401F70160817181828193810E947FF680
:1032C000D7016D937D938D939C931397812F0E94CB
:1032D00039A8CBCF002321F08CE691E00E945C520C
:1032E0000E9485AA0C9458270E948A650C9458273E
:1032F0008091B6129091B7128237910509F4B9C541
:103300000CF08CC08C34910509F484C30CF045C0DA
:103310008731910509F4E1C1ECF48231910509F49A
:10332000BCC46CF497FF02C00C942827823091052E
:103330000CF43DC1419709F472C10C9428278531E2
:10334000910509F4BCC10CF0BEC1449709F486C1D3
:103350000C9428278B31910509F4FBC13CF4893189
:10336000910509F4DBC10CF4CDC1E5C18F319105A4
:1033700009F4A5C22CF44E9709F43EC20C942827F8
:103380008032910509F45FC28B34910511F00C94E1
:1033900028270E948EAB0C9458278836910509F493
:1033A0003DC304F58335910509F46FC47CF4813580
:1033B000910509F44DC40CF060C48D34910511F0F1
:1033C0000C9428270E94D9AB0C9458278535910579
:1033D00009F49CC40CF461C48C35910509F4BBC498
:1033E0000C9428278C36910509F4C9C33CF48A361D
:1033F000910509F460C30CF448C39FC38E36910550
:1034000009F4AAC30CF425C38037910509F4BDC3A0
:103410008137910509F4C0C30C9428278D3D91058F
:1034200011F40C9480220CF04FC0873A910509F4F6
:1034300033C634F58C38910509F4D3C39CF4853731
:10344000910509F41EC58737910509F42BC583370B
:10345000910511F00C9428278AE993E00E946531C8
:103460000C945827843A910509F43EC5863A910593
:1034700009F44DC5833A910511F00C94282716C51F
:103480008C3C910509F4F2C674F4893C910509F469
:10349000A5C68B3C910509F4C8C68E3B910511F079
:1034A0000C942827B9C38E3C910509F426C70CF467
:1034B00011C7833D910509F43DC78C3D910511F479
:1034C0000C9459220C942827853F21E0920711F48F
:1034D0000C94D326CCF5803941E0940711F40C9478
:1034E00069269CF48D32A1E09A0711F40C942123F3
:1034F0008F32B1E09B0711F40C94A52382329140E6
:1035000011F00C9428270C94CB228C39F1E09F0702
:1035100011F40C946C264CF48A39914011F00C94FF
:1035200028270E9478300C9458278C3A41E0940761
:1035300011F40C947626843F914011F00C942827C6
:103540000E94054B0C9458278C30A2E09A0711F486
:103550000C94F32684F4873FE1E09E0711F40C9469
:10356000D92614F40C94D626883F914011F40C947B
:10357000E2260C942827803A33E0930709F498C197
:103580004CF48835924011F00C9428270E94C59283
:103590000C945827873EA3E09A0711F40C94002757
:1035A000893E934011F40C940E270C94282780E553
:1035B0000E948092882329F00E94B7916B017C01C0
:1035C00003C0C12CD12C760183E50E948092882310
:1035D00061F00E94FF9120E030E04AE754E40E944D
:1035E000CEEF0E947BF76B017C010E94B14F80916E
:1035F000B4129091B512009721F061E00E947BB067
:1036000005C060E080E992E00E94E9AF40E0C701B8
:10361000B6010E94DF370E94D9650C94582780912B
:10362000B01284FF02C00C9445288091B21287FF2B
:1036300002C00C9445288091B312837011F00C9451
:10364000452860E083EA92E00E94E9AF1798179856
:1036500017981798179817980C9458278091F2107C
:1036600083FF25C08BEB92E00E9465318091F210C0
:1036700083FF17C088E39FE00E94EE828BE1E8E3BE
:10368000FFE0DE01119601900D928A95E1F760E06E
:1036900070E0CE0101960E9431B6CE0101960E94E3
:1036A000F3828CEA92E00E9465310C9458270E94C4
:1036B00094318CEC92E00E9465310C9458270E9462
:1036C0008BB30C9458270E94CBB28091F210877F65
:1036D00080628093F2100C945827E091B412F0911C
:1036E000B5128081882329F0803209F41082319646
:1036F000F8CF60E08091B4129091B5120E94CBB4E3
:103700000C9458270E94FA30882321F00E94DDB2E1
:103710000E948EAB0E94D9650C9458278091F210BC
:1037200082FF03C08B7F8093F2100E94C4AB0E9483
:10373000D9650C9458278091F21083FD02C00C9437
:10374000582783E50E94809281110C9457280C948D
:10375000582783E40E943292882319F180EE92E088
:103760000E9465318091E20E882391F0BE016F5F67
:103770007F4F8FED9EE00E94F5838E010F5F1F4FFC
:10378000F80181918F01882339F00E945E31F8CFD2
:1037900086ED92E00E9465318AE00E945E310C94D1
:1037A00058278091F21082FF21C08FEE92E00E9494
:1037B00065316091EE107091EF108091F010909152
:1037C000F1104AE00E9462328FE20E945E31609105
:1037D000EA107091EB108091EC109091ED104AE09E
:1037E0000E9462320E949C330C94582781E093E03F
:1037F0000E9465310C9458278091F21083FD02C01D
:103800000C9458270E9476658091F21083FD02C0C7
:103810000C9458274091B4125091B512BE016F5FBD
:103820007F4F80E00E9469DF009711F40C945827C5
:10383000BC0182E193E00E947D3188EC99E20E9414
:1038400065310C9458278091F21082FD0E94B14F8F
:103850008091F21083FD02C00C94582760E080E54F
:103860000E949B96182F682F8091B4129091B512E8
:103870000E94CBB483E50E948092882381F00E944D
:10388000C791AB01BC014093EE105093EF106093D1
:10389000F0107093F1108FED9EE00E9404820E9460
:1038A000DDB211110C9458270E948EAB0C9458274E
:1038B0008091F2108D7F8093F2100C9458270E9413
:1038C0003FAB7B018C0120E831E541E050E00E94F4
:1038D000BEF5C9016DE671E00E943BF64B015C014B
:1038E000C801B70120E13EE040E050E00E94BEF593
:1038F000CA01B90128E130E040E050E00E94BEF585
:10390000762E672EC62ED72E9CE3292E312C412CE5
:10391000512CC801B701A20191010E94BEF5F62EFB
:10392000E72ECA01B901A20191010E94BEF5CB01A7
:103930008E010F5F1F4F8114910499F0EF92FF9257
:103940007F936F936F927F92BF92AF929F928F926D
:1039500086E393E09F938F931F930F930E9400EF52
:1039600013C0A114B104B1F0EF92FF927F936F9353
:103970006F927F92BF92AF928AE393E09F938F936F
:103980001F930F930E9400EF0FB6F894DEBF0FBE97
:10399000CDBF30C0CD2879F0EF92FF927F936F9327
:1039A0006F927F928EE393E09F938F931F930F9379
:1039B0000E9400EFE9CF892B69F0EF92FF927F938D
:1039C0006F9382E493E09F938F931F930F930E94D2
:1039D00000EFDACFEF92FF9286E493E09F938F930C
:1039E0001F930F930E9400EF0F900F900F900F9076
:1039F0000F900F9060E0C8010E947BB00E9494314C
:103A0000B8018AE493E00E947D318AE00E945E3131
:103A10000C9458270E94C4AB0C94582789E40E9448
:103A20008092882311F40C9468280E94DB9190E026
:103A30001816190614F481E090E026E0289FF001A2
:103A4000299FF00D1124EE54F54F808191810C9443
:103A5000732889E40E948092882311F40C947628BC
:103A60000E94DB9190E01816190614F481E090E0B2
:103A700026E0289FF001299FF00D1124EE54F54F08
:103A80008081918110E00C9487280E948D92182FDC
:103A900087FD0AC086EB9DE10E946531812F0E945F
:103AA000E9858AE00E945E316396BFAD6397B0936B
:103AB0002D020C94FF2C80E50E948092811108C099
:103AC00081E40E943292811109C00FEF10E00AC018
:103AD0000E94DB9181110C945827F2CF6091D9029A
:103AE000062F10E089E40E948092882399F00E94BA
:103AF000DB9190E01816190614F481E090E026E0BE
:103B0000289FF001299FF00D1124EE54F54F0481F8
:103B1000158108C083E50E948092882319F00E94D5
:103B2000C7918B01B8010F3F110519F010F06FEF2D
:103B300070E06093D9020C94582780E50E9480922F
:103B4000811104C01092D9020C9458270E94DB9175
:103B500081110C945827F6CF8EE40E94809288231E
:103B600011F40C9458270E94C7916093950B7093A1
:103B7000960B8093970B9093980B0C945827109268
:103B8000240C109246010C94582741E060E070E04C
:103B90008CE593E00E94983183E50E94809288230F
:103BA00081F00E94DB91282F30E02D33310524F481
:103BB000809304010C9458278CE3809304010C94A7
:103BC00058270E9494314091040150E060E070E079
:103BD0008AE693E00E94CF328AE00E945E310C9424
:103BE000582789E40E948092882311F40C94C428F9
:103BF0000E94DB9190E01816190614F481E090E021
:103C000026E0289FF001299FF00D1124EE54F54F76
:103C1000628173810C94CE2889E40E94809288236B
:103C200011F40C94DB280E94DB9190E01816190621
:103C300014F481E090E026E0289FF001299FF00D28
:103C40001124EE54F54F6281738118A20C94EB2875
:103C50000E9407880E94D9AB0E94C24F0E941E3169
:103C600068EE73E080E090E00E942E3060E08FE824
:103C700093E00E94E9AF0C94582780912C028F7D2D
:103C8000806180932C020C94582780912C028F7EA7
:103C9000806280932C020C94582783E50E948092C6
:103CA0008823F1F00E94204A6093750A7093760A87
:103CB0008093770A9093780A0E94FF9120E030E089
:103CC0004AE754E40E94CEEF0E947BF7609305011F
:103CD0007093060180930701909308010C94582774
:103CE0008091B01284FF02C00C94662A8091B212B7
:103CF00087FF02C00C94662A8091B312837011F082
:103D00000C94662A0E94C24F0C94582783E50E94A7
:103D10003292882311F40C9458270E94204A609311
:103D2000750A7093760A8093770A9093780A0E94B6
:103D3000FF9120E030E04AE754E40E94CEEF0E9479
:103D40007BF7609328027093290280932A02909354
:103D50002B020C9458270E948D9287FF02C00C946E
:103D600058279091B01294FD04C09091B21297FF21
:103D70000AC0BCE8CB2EB1E0DB2E1FEDE12E17E030
:103D8000F12E10E00AC09091B312937091F7682F52
:103D900081E00E947C910C945827D6018D916D0191
:103DA0000E948092882309F459C0133009F04FC053
:103DB0000E94FF914B015C0120E030E040EA51E4B9
:103DC0000E9468EF87FF3AC0A50194016091FF0748
:103DD0007091000880910108909102080E9402F7FA
:103DE0002B013C019B01AC0160910F087091100800
:103DF00080911108909112080E94CEEF60930F08F5
:103E00007093100880931108909312086091CD026E
:103E10007091CE028091CF029091D0020E946DEFFE
:103E2000A30192010E94CEEF0E947BF76093CD0226
:103E30007093CE028093CF029093D0028092FF07BE
:103E400090920008A0920108B092020807C00E9458
:103E5000FF91F701648B758B868B978B1F5FF4E066
:103E6000EF0EF11C143009F098CF0E9491530C947E
:103E700058270E9424B885E89FE00E9464D90C94DA
:103E800058278091B4129091B512009709F442CC52
:103E9000DC012C91222309F43DCC60E00E947BB030
:103EA0000C9458270E940AAB0C94582760E070E0ED
:103EB00083E50E94B6928C018230910574F460E033
:103EC00070E080E50E94B6921127F801EF53F44F9D
:103ED00080830E94C8970C945827419714F40C943F
:103EE00058270E945D98E4C76FEF7FEF83E50E943B
:103EF000B69297FD07C0803191050CF0D9C70E949A
:103F00000B2FD6C780910C030E940B2FD1C781E4E1
:103F10000E948092882351F00E94FF9160930D01CE
:103F200070930E0180930F01909310018AE50E9417
:103F30008092882351F00E94FF9160931101709349
:103F40001201809313019093140189E40E948092DE
:103F5000882381F00E94D79197FD07C00E94D791D6
:103F600041972CF40E94D79103C080E001C080E10A
:103F7000809315018AE40E948092882381F00E9438
:103F8000D79197FD07C00E94D79141972CF40E94CA
:103F9000D79103C080E001C080E18093160183E5E2
:103FA0000E943292882321F00E94EF9180930A01AF
:103FB0000E949A2E8DE894E00E94653180910A015A
:103FC0000E94743180910A01882309F4E5CB84E8CA
:103FD00094E00E946531809115016DE071E0082E3A
:103FE000000C990B0E9460918DE794E00E9465316E
:103FF0008091160161E171E0082E000C990B0E947E
:10400000609160910B0170E080E090E00E946FEFA2
:1040100020E030E0A9010E947FF66B017C016091F5
:104020000C0170E080E090E00E946FEFA701960124
:104030000E947FF64B015C01ABE0EA2EA1E0FA2E74
:1040400001EC1BE0F70161917F0170E080E090E0FE
:104050000E946FEF20E030E048EC52E40E94CEEF87
:10406000A50194010E9402F70E94EBF60E9474F7EA
:10407000D8016D938D01BBE0033C1B0719F780E766
:1040800094E00E94653182E00E94D85442E00E9490
:1040900016330E94469180CB83E50E94329288239A
:1040A00021F00E94EF918093B20281E40E948092FD
:1040B000882351F00E94FF916093B3027093B40281
:1040C0008093B5029093B6028AE50E94809288237D
:1040D00051F00E94FF916093B7027093B8028093F1
:1040E000B9029093BA020E949A2E8BE994E00E9442
:1040F00065318091B2020E9474318091B2028823AE
:1041000009F44ACB84E894E00E9465314091B302FF
:104110005091B4026091B5027091B60284E899E2C0
:104120000E948B338DE794E00E9465314091B70285
:104130005091B8026091B9027091BA0284E899E294
:104140000E948B3382E00E94D854AB01BC0180E70F
:1041500094E00E948B336091BB0270E080E090E0BD
:104160000E946FEF20E030E0A9010E947FF66B0112
:104170007C016091BC0270E080E090E00E946FEFF3
:10418000A70196010E947FF64B015C01EBEBEE2E3E
:10419000E2E0FE2E01EC1BE0F3ECCF2EFBE0DF2E85
:1041A000F70161917F0170E080E090E00E946FEF85
:1041B00020E030E048EC52E40E94CEEFA5019401EB
:1041C0000E9402F70E94EBF60E9474F7D8016D93EB
:1041D0008D01CA16DB0609F4DFCAE2CF0E948D9278
:1041E00087FD66C66CE8E62E61E0F62E0FED17E05F
:1041F0007FEEC72E77E0D72EF70181917F010E94D5
:104200003292882361F00E94FF910E947BF7D801CF
:104210006D937D938D939C9313970E946A4F0C5FCF
:104220001F4FC016D10641F743C60E948D9287FDED
:104230003FC65CE8E52E51E0F52E0FED17E0F701E3
:1042400081917F010E943292882349F00E94FF9160
:10425000D80194966D937D938D939C9397970C5F63
:104260001F4FB7E00F3E1B0751F722C68091B112D6
:1042700087FF02C00C948B2A8091B2128E7011F0CD
:104280000C948B2A409113085091140860911508E2
:104290007091160887EA94E00E948B3340911708CA
:1042A000509118086091190870911A088DE893E1EF
:1042B0000E948B3340911B0850911C0860911D088F
:1042C00070911E088AE994E10E948B338AE00E9473
:1042D0005E31EEC58091B01281FF02C00C94D12AEC
:1042E0008091B11281FF02C00C94D12A8091B21248
:1042F0008C7011F00C94D12ADBC547E4E42E48E021
:10430000F42E10E088E5810F0E943292882351F04C
:104310000E94FF91F7016083718382839383812FD1
:104320000E9439A81F5FF4E0EF0EF11C133051F723
:104330000C9470194090D30E5090D40E6090D50E0E
:104340007090D60E20912B0130912C0140912D01BF
:1043500050912E01C301B2010E947FF668A379A398
:104360008AA39BA38090D70E9090D80EA090D90ED0
:10437000B090DA0E20912F0130913001409131013F
:1043800050913201C501B4010E947FF66CA37DA358
:104390008EA39FA3C090DB0ED090DC0EE090DD0ECC
:1043A000F090DE0E209133013091340140913501BF
:1043B00050913601C701B6010E947FF668A779A720
:1043C0008AA79BA72091370130913801409139018C
:1043D00050913A01C301B2010E947FF62B013C01CA
:1043E00020913B0130913C0140913D0150913E01B3
:1043F000C501B4010E947FF64B015C0120913F0191
:10440000309140014091410150914201C701B601F4
:104410000E947FF66B017C010E94943186EE94E04D
:104420000E94653183E50E943292882321F00E9428
:10443000EF9180932901809129010E9474318EEDC2
:1044400094E00E94653148A159A16AA17BA185EF42
:1044500094E10E948B334CA15DA16EA17FA180E904
:1044600099E20E948B3348A559A56AA57BA584E8EB
:1044700099E20E948B338EE197E20E94653186EDCE
:1044800094E00E946531B301A20185EF94E10E949E
:104490008B33B501A40180E999E20E948B33B70107
:1044A000A60184E899E20E948B338AE00E945E3183
:1044B000FFC483E50E948092882331F00E94D79147
:1044C00090935701809356018091B0129091B11250
:1044D000A091B212B091B312892B8A2B8B2B09F0C9
:1044E000E7C4609156017091570186EF94E00E94F5
:1044F000093385E20E945E318AE00E945E31D8C4B1
:104500000E948D92F82E87FDD3C483E50E9480928D
:104510000F2D0F2C000C110B882311F10E94D79145
:10452000F801EE0FFF1FED5BFE4F91838083000FBC
:10453000111F000F111F055E1E4FBC01990F880B44
:10454000990B0E946FEF2AE037ED43E25CE30E9493
:10455000CEEFD8016D937D938D939C931397A8C450
:104560000E94943185E40E945E3180E38F0D0E94A9
:104570005E31000F111FF801ED5BFE4F608171810C
:104580008AEF94E00E94093385E20E945E318AE05E
:104590000E945E318DC48AE50E948092811105C01F
:1045A00083E50E948092882391F10E94FF9120E090
:1045B00030E040E050EC0E9468EF87FF02C00C94AE
:1045C000312B0E94FF9120E030E040E050E40E9457
:1045D00002F8181614F40C942A2B0E94FF916B0118
:1045E0007C0184E00E9414A9811111C02091FB0775
:1045F0003091FC074091FD075091FE07C701B601BD
:104600000E94CEEF0E9474F7CB010E940F30809180
:10461000B21287FF02C00C94382B8091B3128370C2
:1046200011F00C94382B0E9494316091310A7091F2
:10463000320A89EE98E20E9409338AE00E945E31D4
:1046400037C485E40E948092811110C080E50E94E9
:1046500032928823B1F00E94FF916093C70E70934D
:10466000C80E8093C90E9093CA0E0BC00E94DB91B6
:10467000882361F30E9490318EE095E00E946531BD
:1046800017C489E40E943292882381F00E94FF912E
:104690002CEA35EC47E25EE30E94CEEF6093CB0E4E
:1046A0007093CC0E8093CD0E9093CE0E84E40E9436
:1046B0003292882381F00E94FF912CEA35EC47E288
:1046C0005EE30E9402F76093CF0E7093D00E80934A
:1046D000D10E9093D20E0E9494314091C70E50910A
:1046E000C80E6091C90E7091CA0E8AE095E00E94D2
:1046F0008B332CEA35EC47E25EE36091CB0E709190
:10470000CC0E8091CD0E9091CE0E0E9402F7AB019F
:10471000BC0186E095E00E948B332CEA35EC47E241
:104720005EE36091CF0E7091D00E8091D10E90918A
:10473000D20E0E94CEEFAB01BC0182E095E00E9458
:104740008B338AE00E945E31B3C360E070E085E4A1
:104750000E94B692882329F08DE496E00E9465318C
:10476000A7C365E070E083E40E94B69261968FAFC4
:10477000619760E085E50E949B96A1968FAFA19717
:1047800083E50E948092882329F00E94FF916B01AB
:104790007C0106C0C12CD12CA8E4EA2EA3E4FA2E99
:1047A00060E080E496E00E947BB0C701B6010E9401
:1047B00074F7072E000C880B990B0E946FEF6CA307
:1047C00078A78CA79DA70E94204A2B013C016091ED
:1047D0002701709128016F507109072E000C880B7A
:1047E000990B0E946FEF9B01AC016CA178A58CA581
:1047F0009DA50E9402F818162CF485E196E00E940F
:10480000653164C2A301920120543B424E4F5F4F79
:10481000A0962CAF3DAF4EAF5FAFA09781E096E082
:104820000E9465310E9407888FE78093C60E81E061
:104830008093460123964CAE5DAE6EAE7FAE23975D
:1048400067964CAE5DAE6EAE7FAE67978FE790E039
:10485000A0E0B0E08EA79FA7A8ABB9AB2B961CAE8B
:104860001DAE1EAE1FAE2B9727961CAE1DAE1EAE04
:104870001FAE2797812C912C54011CAA90E498AF6D
:10488000ACE1A9AFB6E4BAAF1BAE1CAE1DAE1EAE16
:1048900068961FAE68976C968CAE9DAEAEAEBFAEFE
:1048A0006C97FFE7CF2ED12CE12CF12C60961CAE3B
:1048B0001DAE1EAE1FAE6097E1E02C96EFAF2C97B9
:1048C0001BAA1AAA10E0212C312C00E061962FAD12
:1048D0006197022E000C330B62963FAF2EAF6297AA
:1048E00080914601882309F4EDC10E94204A68A303
:1048F00079A38AA39BA380919A0B882309F497C07C
:104900000E945D891091C00E2090C10E3090C20EA1
:104910000091C30E2BAD3CAD4DAD5EAD612F722D40
:10492000832D902F0E9402F8181624F41BAF2CAE92
:104930003DAE0EAF2CA938AD49AD5AAD612F722DE9
:10494000832D902F0E9468EF87FF04C01CAB28AE18
:1049500039AE0AAF2C963FAD2C97212F332309F4A3
:1049600045C0322D432D502F6CA178A58CA59DA557
:104970000E9468EF87FF5BC048A159A16AA17BA193
:104980004419550966097709DB01CA018858934122
:10499000A109B109B7FD4BC08EA59FA5A8A9B9A9CA
:1049A0008C199D09AE09BF09B595A795979587956F
:1049B0008093C60E60964CAF5DAF6EAF7FAF6097D1
:1049C0004CA14BAF58A55CAF8CA58DAF9DA59EAFFC
:1049D00028A139A14AA15BA123962CAF3DAF4EAFD0
:1049E0005FAF23972C961FAE2C9721C0322D432DFD
:1049F000502F6CA178A58CA59DA50E9402F81816D1
:104A0000B4F488A199A1AAA1BBA123962CAD3DAD78
:104A10004EAD5FAD2397821B930BA40BB50BAC017E
:104A2000BD01485853416109710977FF28C620E04C
:104A300030E040EF51E46CA178A58CA59DA50E94C3
:104A40007FF6212F322D432D502F0E9468EF87FFD4
:104A500003C085E196E0BAC088A199A1AAA1BBA133
:104A600067962CAD3DAD4EAD5FAD6797821B930B46
:104A7000A40BB50BB7FD8CC080E00E94E9858AE0ED
:104A80000E945E3188A199A1AAA1BBA18053984F31
:104A9000AF4FBF4F67968CAF9DAFAEAFBFAF6797BD
:104AA00068969FAD6897911158C06C962CAD3DAD3E
:104AB0004EAD5FAD6C97612F722D832D902F0E94AC
:104AC00002F81816ACF520E030E040E050E4612F29
:104AD000722D832D902F0E947FF66C966CAF7DAF68
:104AE0008EAF9FAF6C9728A139A14AA15BA120543A
:104AF0003B424E4F5F4FA0962CAF3DAF4EAF5FAFE6
:104B0000A09720E030E040EC50E46CA178A58CA5A3
:104B10009DA50E947EF6212F322D432D502F0E94FD
:104B200068EF881F8827881F68968FAF689730C006
:104B300088A199A1AAA1BBA1A0962CAD3DAD4EAD77
:104B40005FADA097821B930BA40BB50BB7FD20C0E4
:104B50004FE45BE26EE57BE218C020E030E040EF1E
:104B600051E46CA178A58CA59DA50E947EF69B01C1
:104B7000AC01612F722D832D902F0E9468EF87FF6B
:104B800007C04FE25BE26FE37BE280E00E94C4D5A6
:104B900023968CAD9DADAEADBFAD2397481659069B
:104BA0006A067B0610F4D301C20128A139A14AA1EB
:104BB0005BA1281B390B4A0B5B0BDA01C901813859
:104BC0009F44A241B10528F08AE995E00E94653131
:104BD00079C062964EAD5FAD62978AA99BA94817CE
:104BE00059070CF06CC003970CF469C08DE395E095
:104BF0000E94653180E295E00E946531B501A40113
:104C000089E395E00E948B338AE00E945E3180E266
:104C100095E00E94653127964CAD5DAD6EAD7FADE0
:104C2000279785E395E00E948B338AE00E945E31EE
:104C300080E295E00E9465312B964CAD5DAD6EAD86
:104C40007FAD2B9781E395E00E948B338AE00E9431
:104C50005E31A1969FADA1979923C1F18092C70EB5
:104C60009092C80EA092C90EB092CA0E2CEA35ECF2
:104C700047E25EE327966CAD7DAD8EAD9FAD279785
:104C80000E94CEEF6093CB0E7093CC0E8093CD0E2E
:104C90009093CE0E2CEA35EC47E25EE32B966CAD9A
:104CA0007DAD8EAD9FAD2B970E9402F76093CF0E26
:104CB0007093D00E8093D10E9093D20E07C00E94B5
:104CC000CCD90ECE109246010E9407880E94D96569
:104CD000EFC00E94B14FECC08091B01283FD0BC6B3
:104CE0008091B212867009F006C62AC60E948267B9
:104CF0008111DEC008EB1DE0A0E6B1E0B9A3A8A3D6
:104D0000FE0131961F019BEEC92E9DE0D92E7F0139
:104D1000F8016591759185919491A8A1B9A18D90A3
:104D20009D90AD90BD90B9A3A8A3A50194010E9448
:104D30007EF62B013C01F7016083718382839383AC
:104D400020E030E040EA51EC0E9402F887FD0AC002
:104D500020E030E040EA51E4C301B2010E9468EF74
:104D600018162CF4F601849118160CF406C6D70117
:104D70008D909D90AD90BD907D0120E030E040EAA7
:104D800051ECC501B4010E9402F887FD01C620E084
:104D900030E040EA51E4C501B4010E9468EF181602
:104DA0000CF004C6F5C50E9407CE82C00E94CAC797
:104DB0007FC061E083E50E949B9691E089270E9475
:104DC0007A7A76C081E08093FC110E94D6C8109256
:104DD000FC11882309F46CC00E94943184EE96E0A3
:104DE0000E94653165C08091F21082FF04C080642A
:104DF0008093F2105DC083FF5BC00E94766558C04F
:104E000081E08093190A1092230C60E083E50E94F0
:104E10009B9681114DC00E94CB804AC00E943FAB3F
:104E20006D3371058105910520F087E097E00E94C0
:104E300003DE83E097E00E9403DE8FEE96E00E949F
:104E400065318DE599E2909355088093540830C000
:104E50000E948A652DC00091B6121091B7120E946F
:104E6000204A6093750A7093760A8093770A90932C
:104E7000780A0031A8F00E94943184E50E945E31E6
:104E8000B8017727072E000C880B990B0E94ED3292
:104E900080E20E945E318EE095E00E94653108C09C
:104EA00000930C03802F0E944E2E02C00E948A6540
:104EB000A296FFADA297F11102C00E94BB8063963B
:104EC0002FAD639720932D029AC50E94B14F109287
:104ED0002A010E94204A6093750A7093760A809393
:104EE000770A9093780A8091000190910101A09136
:104EF0000201B09103018093300290933102A0939C
:104F00003202B093330280915601909157019093F1
:104F10002F0280932E0284E690E0909357018093B5
:104F2000560181E080933C080E9434AB8AE50E94E0
:104F30003292F82E88E50E943292182F89E50E945D
:104F400032921813A0C0F11611F0012F04C001E035
:104F500011E0FF24F39482E50E948092882369F097
:104F60000E94FF914B015C0120E030E0A9010E940A
:104F700068EF882309F454C006C0812C912C50E2BC
:104F8000A52E51E4B52E111103C0002309F452C01F
:104F900020E030E0A901C501B4010E947FF6762E21
:104FA000872E982EA92EB0906801C0906901D090EC
:104FB0006A01E0906B012B2D3C2D4D2D5E2D0E9442
:104FC00068EF87FD03C0B72C6401EA2C80E090E015
:104FD000A0E8B0E48C8F9D8FAE8FBF8F20E030E0D3
:104FE0004CE553E46B2D7C2D8D2D9E2D0E9468EF9A
:104FF00087FF03C09D2D8E2D04C0B12CC12C9CE5D4
:1050000083E44B2D5C2D692F782F49835A836B8362
:105010007C83BE01645E7F4FCE0101960E94F4A99D
:10502000112319F080E00E942C55002319F081E033
:105030000E942C55FF2019F082E00E942C550E94FE
:1050400043AA80913B0880933C0880913002909164
:105050003102A0913202B09133028093000190930B
:105060000101A0930201B093030180912E0290915F
:105070002F02909357018093560183E0809345015E
:105080000E9485AA15CF082F66CF88E50E9432922C
:105090008111179889E50E943292811117988AE54B
:1050A0000E943292882309F403CF179801CF0E94FF
:1050B000C791AB01BC014093EE105093EF10609389
:1050C000F0107093F1108FED9EE00E940482F0CEFC
:1050D00083E50E948092882309F4EACE0E94FF9122
:1050E0000E9474F7CB010E94D985E2CE83E50E942D
:1050F0008092182F811106C082E50E948092882339
:1051000009F4D6CE0E94FF910E9474F7CB010E9451
:10511000D9856091C40E7091C50E072E000C880BC6
:10512000990B0E946FEF6B017C018090C00E9090F4
:10513000C10EA090C20EB090C30EA50194010E94B2
:1051400002F81816F4F0111118C0A5019401C70156
:10515000B6010E9402F81816A4F085E793E09F9329
:105160008F9387E593E09F938F931F920E9462B085
:105170000F900F900F900F900F90812F0E94FC6561
:1051800097CE84E893E0EBCF83E50E94809288235A
:1051900009F48ECE0E94FF910E9474F76837710562
:1051A0003CF4962F872F9093A50B8093A60B80CE6F
:1051B00098E780E0F8CF83E50E94809288A3811170
:1051C00006C082E50E948092882309F471CE0E9475
:1051D000FF910E9474F7683771050CF074C17093E9
:1051E000A60B6093A50B072E000C880B990B0E9451
:1051F0006FEF2091A10B3091A20B4091A30B509126
:10520000A40B0E9402F818161CF480E893E002C078
:1052100081E793E060E00E94E9AF81E0809346017E
:1052200018A619A61AA61BA61CAA1DAA1EAA1FAA62
:1052300019AEECE3EAAFFCE1FBAF26E42CAFC12CE6
:10524000D12C00E8E02E8FEBF82E1CA231E038AF15
:10525000812C912C54016091A50B7091A60B072E07
:10526000000C880B990B0E946FEF162F072F382E1A
:10527000292E9601A7010E9468EF882331F1209121
:10528000A10B3091A20B4091A30B5091A40B88A1CC
:10529000612F702F811109C0832D922D0E9468EF1C
:1052A000881F8827881F8CA316C0832D922D0E94EB
:1052B00068EF87FF0FC080914601882309F4F8CD7D
:1052C000109246010E94D965F3CD1C2D0D2D3E2C68
:1052D0002F2C01C01CA20E94204A6B017C01DC0122
:1052E000CB012CA93DA94EA95FA9821B930BA40B4E
:1052F000B50BB7FD33C0D701C60188519C4FAF4FE6
:10530000BF4F8CAB9DABAEABBFAB80E00E94E985DD
:1053100086E792E10E94653181149104A104B104F1
:10532000B9F0D501C401805F984DAF4FBF4FBC01AC
:10533000CD016C197D098E099F0928EE33E040E00C
:1053400050E00E94BEF5CA01B9010E94ED3203C0CF
:105350008FE30E945E318AE00E945E3180E00E940D
:10536000B6330E94204A6093750A7093760A809340
:10537000770A9093780A9091A10B9CA7A091A20B19
:10538000ADA7B091A30BBEA7E091A40BEAAB292F68
:105390003A2F4B2F5E2F612F702F832D922D0E945D
:1053A0007EF62B013C0120E030E0A9010E9402F8CA
:1053B00087FF04C077FA709477F870948114910491
:1053C000A104B104E1F420E030E040E85FE3C30170
:1053D000B2010E9468EF87FF1EC0F8ADFF2329F0DD
:1053E00085E09DE0A0E0B0E003C080E090E0DC015B
:1053F00046015701880E991EAA1EBB1E0CC020E054
:1054000030E040E450E4C301B2010E9402F81816F3
:1054100014F4460157012CA12223C1F188A599A5B6
:10542000AAA5BBA5892B8A2B8B2B61F0D701C601BE
:1054300028A539A54AA55BA5821B930BA40BB50B28
:10544000B7FD24C02CA53DA54EA55AA969AD7AADDE
:105450008BAD9CAD0E947EF620E030E040E85FE33B
:105460000E9468EF87FD27CFD701C601805A95417A
:10547000AF4FBF4F88A799A7AAA7BBA79CA599AF75
:10548000ADA5AAAFBEA5BBAFEAA9ECAF809146011E
:10549000882309F410CF81149104A104B10431F4DC
:1054A00018AEC12ED02EE32CF22CD5CEF0E1CF1ABF
:1054B000F7E2DF0AE108F108C818D908EA08FB0892
:1054C000F7FCEECFF8CE68E770E089CE0E94B14FCE
:1054D00088E50E943292882331F0179A80913E0825
:1054E0008E7F80933E0889E50E943292882331F0B6
:1054F000179A80913E088D7F80933E088AE50E942E
:105500003292882309F4D4CC179A80913E088B7F7D
:1055100080933E08CDCC83E50E948092882391F051
:105520000E94FF91609313087093140880931508EC
:105530009093160860931B0870931C0880931D08B5
:1055400090931E0880E50E948092882351F00E946B
:10555000FF9160931308709314088093150890933B
:10556000160882E50E948092882351F00E94FF91E4
:1055700060931708709318088093190890931A087D
:1055800084E50E948092882309F492CC0E94FF91C6
:1055900060931B0870931C0880931D0890931E084D
:1055A00087CC82E40E943292882351F00E94B79106
:1055B0006093EF077093F0078093F1079093F207E1
:1055C00083E50E943292882351F00E94FF916093FC
:1055D0001F0870932008809321089093220884E587
:1055E0000E943292882351F00E94FF916093230819
:1055F0007093240880932508909326088AE40E94DB
:105600003292882309F454CC0E94FF916B017C01F3
:105610002AE037ED43E25CE30E9402F887FD13C005
:105620002AE939E949E95EE3C701B6010E9468EF5A
:1056300018164CF0C092BD02D092BE02E092BF029A
:10564000F092C00235CC0E94903187EB94E00E942A
:1056500065312ECCC12CD12CE12C10E4F12E0C9410
:10566000F122C12CD12CE12CB0ECFB2E0C94F122B8
:1056700082E50E94329281110C94132319CC4AA91D
:105680005BA9452B09F413C160964CAC5DAC6EACC4
:105690007FAC6097480E591E6A1E7B1E60962CAD2B
:1056A0003DAD4EAD5FAD6097281B390B4A0B5B0BD0
:1056B000C701B6010E94AEF5A30192010E94E0F578
:1056C000CEA4DFA4E8A8F9A8C20ED31EE41EF51EDE
:1056D00054E1C516D104E104F1040CF18CEEC816B6
:1056E000D104E104F1043CF490E8C916D104E104CA
:1056F000F10434F422C04BEEC42ED12CE12CF12C59
:10570000CEA6DFA6E8AAF9AA2EEF30E040E050E0EE
:105710002C193D094E095F0969017A0112C084E123
:1057200090E0A0E0B0E08EA79FA7A8ABB9AB34E1B2
:10573000C32ED12CE12CF12C04C0CEA6DFA6E8AA02
:10574000F9AA89EF95E00E9465316EA57FA588A929
:1057500099A90E94ED3284EF95E00E946531C7015E
:10576000B6010E94ED324CA958AD69AD7AAD8DEE0F
:1057700095E00E948B334BAD5CAD6DAD7EAD86EE9A
:1057800095E00E948B33AAA9BBA913970CF48FC094
:10579000C701B6010E946FEF20E030E040E850E41E
:1057A0000E94CEEF4B015C012CA938AD49AD5AAD3A
:1057B0006BAD7CAD8DAD9EAD0E947EF62BED3FE0D6
:1057C00049E450E40E94CEEF20E030E040E05FE3A7
:1057D0000E94CEEF9B01AC01C501B4010E9402F70B
:1057E0004B015C01C301B2010E946FEF2FE632E171
:1057F00043E85AE30E94CEEF2B013C01B501A4011E
:1058000080EE95E00E948B33B301A2018AED95E012
:105810000E948B332AE939E949E15FE3C501B4010C
:105820000E94CEEF4B015C019B01AC01C301B201B0
:105830000E94CEEF20E030E040E05EE30E94CEEF39
:105840002B966CAF7DAF8EAF9FAF2B97A5019401C8
:10585000C501B4010E947FF6A30192010E9402F7E4
:1058600027966CAF7DAF8EAF9FAF279788EB95E003
:105870000E946531B501A40184ED95E00E948B334F
:1058800027964CAD5DAD6EAD7FAD27978EEC95E064
:105890000E948B332B964CAD5DAD6EAD7FAD2B97DB
:1058A00088EC95E00E948B338AE00E945E318EA5E1
:1058B0009FA5A8A9B9A98C0D9D1DAE1DBF1DB595AD
:1058C000A795979587958093C60EEAA9FBA931966F
:1058D000FBABEAABFCA1FCAB28A528AF3CA539AFDC
:1058E0004DA54AAF48A059A06AA07BA051E02C96D4
:1058F0005FAF2C979CC882E50E943292082F83E507
:105900000E943292182F011102C0112341F00E940F
:10591000192D112321F00E94EF9180934C0184E412
:105920000E943292882309F4C3CA0E94FF916093B7
:1059300048017093490180934A0190934B01B8CA82
:105940000E94943187E996E00E94653180914C0174
:105950000E9474318AE00E945E314091480150916A
:10596000490160914A0170914B0187E796E00E94DE
:105970008B338AE00E945E319BCAB7FAB094B7F8C5
:10598000B094D7018D929D92AD92BC921397EFC9BE
:105990000E94903186EC96E00E94653161E088EBD0
:1059A00096E00E94E9AF0E947ACF82CA0C5F1F4F37
:1059B000BFEFCB1ADB0AEDE0043C1E0709F0A8C9D3
:1059C00087E4E82E88E0F82E10E0F10181919191B2
:1059D000A191B1911F01F70181939193A193B1938B
:1059E0007F01812F0E9439A81F5F133071F70E9439
:1059F00085AA60E088EA96E00E94E9AF59CACF59CB
:105A0000DF4F0FB6F894DEBF0FBECDBFDF91CF9151
:105A10001F910F91FF90EF90DF90CF90BF90AF90CC
:105A20009F908F907F906F905F904F903F902F90BE
:105A300008951092500A8091480190914901A091D7
:105A40004A01B0914B018093BE0A9093BF0AA09384
:105A5000C00AB093C10A0895179A179A179A089521
:105A600090E0FC013197EF30F10520F4EA5BFF4F45
:105A70000C9463F680E090E0A0E2B1E480933F08EC
:105A800090934008A0934108B093420810924308B5
:105A900010924408109245081092460808951092FA
:105AA0003F0810924008109241081092420880E08E
:105AB00090E0A0E2B1E4E9C080E090E0A0E2B1E4CF
:105AC00080933F0890934008A0934108B093420808
:105AD000DCC080E090E0A0E1B1E480933F089093C7
